:020000040800F2
:10000000E816002001010008D51E00085B15000855
:10001000651D0008190E0008C3300008000000002C
:100020000000000000000000000000009D23000808
:10003000730E000800000000C921000855250008C3
:100040001B0100081B0100081B0100081B01000820
:100050001B0100081B0100081B0100081B01000810
:100060001B010008B90E0008D70E00081D0E00087D
:100070001B0100081B0100081B0100081B010008F0
:100080001B0100081B0100081B0100081B010008E0
:100090001B0100081B0100081B010008F50E0008E9
:1000A0001B0100081B0100081B0100081B010008C0
:1000B000B92500081B010008D12500081B01000814
:1000C0001B0100081B0100081B0100081B010008A0
:1000D0001B010008353000081B0100081B01000847
:1000E000750E00081B0100081B010008DFF80CD08A
:1000F00000F046FC00480047074C0008E8160020C6
:100100000648804706480047FEE7FEE7FEE7FEE7B1
:10011000FEE7FEE7FEE7FEE7FEE7FEE759250008FB
:10012000ED0000082DE9F0410024061B254671F181
:10013000000605DA01240027D0EB070067EB010178
:10014000161E73F1000605DA0027D2EB070201251F
:1001500067EB030300F0FEFA86460E4617469C4600
:10016000AC4204D00025D0EB050E65EB010624B1AE
:100170000020D2EB000760EB030C704631463A4694
:100180006346BDE8F08140EA01039B0703D009E024
:1001900008C9121F08C0042AFAD203E011F8013B73
:1001A00000F8013B521EF9D27047D2B201E000F8CC
:1001B000012B491EFBD270470022F6E710B513460B
:1001C0000A4604461946FFF7F0FF204610BD30B539
:1001D00004460020034600E05B1C934203D2E05C2F
:1001E000CD5C401BF8D030BDF0B480EA0102D40FE2
:1001F0004200B2EB410F02D20246084611464A00C5
:1002000042D0C30DDDB2C1F3C752AD1A202D35DA8D
:10021000C1F3160141F4000204B15242C5F12006B7
:1002200002FA06F12A411044B3EBD05F23D0C4B1E7
:10023000012DA0EBC35009DCF0BC4FF0004202EAF4
:10024000C352DBB200F5000000F0DFBA400000F15D
:10025000807000EBC350A0F1807040EAD17049007B
:1002600009E0490841EAC071A0EBC35000F5000065
:10027000400800EBC350F0BC00F0BEBA614201225E
:1002800002EB4101001BF6E7F0BC704781F0004132
:10029000AAE780F00040A7E780EA010210B502F06B
:1002A0000043400022D04A001FD0010E01EB126132
:1002B000C0F35600C2F3560240F4000042F40002BC
:1002C000A0FB022000047F39140400D0401C50EA37
:1002D000124001D44000491EC2B20C0604EBD010FB
:1002E000401C4008802A02D003E0002010BD20F00E
:1002F0000100002900DA0020184310BD30B480EA64
:10030000010202F0004530F0004221F0004013D01D
:1003100090B1C30DD40DC2F31601C0F31600E41A58
:1003200041F4000140F400027D34914201D3641C89
:1003300000E04900002C02DA30BC002070474FF486
:1003400000000023914201D3891A034340084FEA79
:100350004101F7D151B1914202D14FF0004105E086
:1003600002D24FF0010101E06FF0010103EBC45034
:10037000284430BC00F040BA2DE9FE4F804681EAA7
:100380000300C00F0C46009021F0004123F000450F
:10039000B8EB0200A94105D24046214690461C46D2
:1003A0000B46024623F00040104347D0270DC7F309
:1003B0000A00C3F30A510290401A019040286BDAF8
:1003C000C3F3130040F4801B0098924620B1002331
:1003D000D2EB030A63EB0B0B01985946C0F14002C4
:1003E000504600F0E8F906460D4650465946019A37
:1003F00000F0F0F910EB08006141002487EA115287
:1004000084EAE7731A4340D0009A62B3019A012A42
:100410004FEA075215DC001B61EB02014FF000426E
:1004200002EA0752CDE90042001C41F58011324634
:100430002B4600F027FA03B0BDE8F08F4046214676
:10044000F9E7001B61EB0201001C41F58013001865
:100450005B412018A2F5001747EB030140EAD57075
:10046000B6196D4111E06D084FEA360645EAC075D0
:100470004FEA0752001B61EB0201001C41F580119D
:1004800049084FEA30000019514132462B4603B06B
:10049000BDE8F04F00F0E7B90098012240000023CA
:1004A000D0EB020263EBE073009821464FEAE07460
:1004B000B8EB000061EB0401E9E783F000435BE780
:1004C00081F0004158E72DE9FE4F81EA030404F072
:1004D000004421F0004100944FF0000B23F0004352
:1004E00050EA01045ED052EA03045BD0C3F30A541D
:1004F000C1F30A552C44A4F2F3340194A0FB025436
:10050000C1F3130141F48011C3F3130343F48013C7
:1005100001FB024400FB034E840A970A44EA81541B
:1005200047EA8357A4FB076802958D0A05FB0785F8
:100530004FEA932C04FB0C542705029D4FEA065802
:1005400047EA1637B5EB08056EEB070C870E920EDF
:1005500047EA811742EA8312A7FB0201B6EB0B01BF
:1005600064EB00042B0D43EA0C335E1844EB1C5083
:10057000DA465146E7FB0201C5F313044FEA0B3399
:1005800043EA14534FEA0432019C43EA0603A4F100
:100590000C040294009CCDE900B400F073F903B0A0
:1005A000BDE8F08F00200146F9E72DE9F04D81EA22
:1005B000030404F0004B21F0004514464FF0000AFC
:1005C00023F0004150EA050220D054EA01021DD078
:1005D000C5F30A570246C5F31303C1F31300C1F371
:1005E0000A5640F4801543F48013A7EB0608101B4D
:1005F000D64608F2FD3873EB050002D308F1010876
:1006000001E092185B41B8F1000F03DA00200146C7
:10061000BDE8F08D00204FF48011064684460EE0C0
:10062000171B73EB050705D3121B63EB050306438A
:100630004CEA010C49084FEA300092185B4150EA3D
:100640000107EDD152EA030012D082EA040083EAE6
:100650000501084305D0101BAB4106D2012200233F
:1006600006E000224FF0004302E06FF00102531059
:100670001AEB06004CEB085110EB0A0041EB0B01A2
:10068000BDE8F04D00F0EFB8C10F80EAE07008441B
:10069000CA079623002100F0B8B89623002211461D
:1006A00000F0B3B800F0004220F00040C10DC0F3EC
:1006B000160040F400007F2901DA002070479629D7
:1006C00003DCC1F19601C84001E096398840002A58
:1006D000F4D04042704720F00040C10DC0F3160036
:1006E00040F400007F2901DA00207047962903DCDE
:1006F000C1F19601C84070479639884070470000A4
:10070000002801DBC0F10040002901DBC1F10041FC
:1007100081427047002801DBC0F10040002901DB65
:10072000C1F100418842704730B50B4601460020B8
:100730002022012409E021FA02F59D4205D303FAA3
:1007400002F5491B04FA02F52844151EA2F1010224
:10075000F1DC30BD2DE9F05F0546002092469B4656
:1007600088460646814640241BE0284641464746C7
:10077000224600F017F953465A46C01A914110D349
:1007800011461846224600F016F82D1A67EB0108AC
:100790004F4622460120002100F00DF817EB00091A
:1007A0004E41201EA4F10104DFDC484631462A46B2
:1007B0004346BDE8F09F202A04DB203A00FA02F10C
:1007C000002070479140C2F1200320FA03F319433F
:1007D00090407047202A06DBCB17203A41FA02F0FE
:1007E00043EAE07306E041FA02F3D040C2F120028E
:1007F00091400843194670470029A8BF7047401C24
:10080000490008BF20F00100704710B4B0FA80FC26
:1008100000FA0CF050EA010404BF10BC704749B163
:10082000CCF1200421FA04F411FA0CF118BF0121D3
:1008300021430843A3EB0C01CB1D4FEA00614FEAB3
:10084000102042BF002010BC704700EBC350104482
:100850000029A4BF10BC7047401C490008BF20F00D
:10086000010010BC704710B5141E73F1000408DAC3
:10087000401C41F1000192185B411A4301D120F064
:10088000010010BD2DE9F04D92469B4611B1B1FA21
:1008900081F202E0B0FA80F220329046FFF78BFF3F
:1008A00004460F4640EA0A0041EA0B0153465A4605
:1008B000084313D0114653EA010019D0C8F1400291
:1008C000504600F06FF805460E46504659464246DF
:1008D000FFF771FF084305D0012004E020463946A8
:1008E000BDE8F08D0020054346EAE0762C4337430F
:1008F0000A986305E40AA0EB08000022FD0A44EA16
:1009000047540A3002D500200146E9E701051019D5
:100910006941DDE9084500196941BDE8F04DA2E7EC
:10092000C1F30A52C1F3130140F2FF3341F48011C5
:100930009A4202DA00200146704740F233439A425D
:10094000A2F2334202DC524200F02CB8FFF733BF70
:1009500030B5041E71F1000404DB4FF00044404246
:1009600064EB0101141E73F1000405DB1C464FF01B
:100970000043524263EB0403994208BF904230BDEA
:10098000064C074D06E0E06840F0010394E80700DC
:1009900098471034AC42F6D3FFF7ACFBE470000884
:1009A00004710008202A04DB203A21FA02F0002119
:1009B000704721FA02F3D040C2F12002914008436F
:1009C0001946704770B58C1810F8015B15F00703D5
:1009D00001D110F8013B2A1106D110F8012B03E0D8
:1009E00010F8016B01F8016B5B1EF9D12B0705D4E0
:1009F0000023521E0DD401F8013BFAE710F8013B29
:100A0000CB1A921C03E013F8015B01F8015B521E44
:100A1000F9D5A142D8D3002070BD21B1826842F03F
:100A20000102826003E0826822F001028260704766
:100A300021B1826842F48012826003E0826822F46D
:100A4000801282607047000008B50121042001F087
:100A5000E9FB0120ADF8000003208DF80200002022
:100A60008DF8030069462F4800F096FC0220ADF88F
:100A7000000003208DF8020000208DF80300694675
:100A8000284800F089FC0420ADF8000003208DF810
:100A9000020000208DF803006946224800F07CFC2B
:100AA0000820ADF8000003208DF8020000208DF82A
:100AB000030069461B4800F06FFC1020ADF80000F1
:100AC00003208DF8020000208DF8030069461548C8
:100AD00000F062FC2020ADF8000003208DF8020039
:100AE00000208DF8030069460E4800F055FC4020B8
:100AF000ADF8000003208DF8020000208DF80300FF
:100B00006946084800F048FC8020ADF8000003204A
:100B10008DF8020000208DF803006946014800F0BE
:100B20003BFC08BD00080140014600208A6802F035
:100B300004020AB1012000E00020704701460020B5
:100B40008A6802F008020AB1012000E00020704724
:100B500030B502460020002350680F4C20400D792C
:100B60000C6844EA05242043506090680B4C2040F8
:100B7000D1E902542C434D7944EA45042043906066
:100B8000D06A20F470000C7C641EE4B2234340EA77
:100B90000350D06230BD0000FFFEF0FFFDF7F1FF13
:100BA000F0B504460D4600200021092D11DDE06856
:100BB000A5F10A0606EB4607072606FA07F1884361
:100BC000A5F10A0606EB460603FA06F10843E060C3
:100BD0000CE0206905EB4507072606FA07F1884374
:100BE00005EB450603FA06F108432061072A0FDAF0
:100BF000606B561E06EB86071F2606FA07F1884330
:100C0000561E06EB860605FA06F10843606322E0ED
:100C10000D2A0FDA206BD61F06EB86071F2606FA71
:100C200007F18843D61F06EB860605FA06F108434E
:100C3000206310E0E06AA2F10D0606EB86071F268E
:100C400006FA07F18843A2F10D0606EB860605FABF
:100C500006F10843E062F0BD816841F0080181605F
:100C60007047816841F004018160704700B585B02C
:100C7000FFF7EAFE01214FF4024001F0D3FA002011
:100C800000908DF804008DF805004FF4602002906C
:100C90000020039001208DF8100069463648FFF7C8
:100CA00057FF4FF4004001F091FA03230122002185
:100CB0003148FFF775FF0323012211462E48FFF745
:100CC0006FFF0323012202212B48FFF769FF032353
:100CD000012219462848FFF763FF0323012204215C
:100CE0002548FFF75DFF0323012205212248FFF776
:100CF00057FF0323012206211F48FFF751FF03235B
:100D0000012207211C48FFF74BFF01211A48FFF77A
:100D100084FE1948FFF7A0FF00BF1748FFF70EFF3A
:100D20000028FAD11448FFF79CFF00BF1248FFF7D4
:100D3000FBFE0028FAD101210F48FFF779FE0121BF
:100D40000E48FFF76AFE0D48FFF786FF00BF0B480D
:100D5000FFF7F4FE0028FAD10848FFF782FF00BF32
:100D60000648FFF7E1FE0028FAD101210348FFF70A
:100D70005FFE05B000BD000000240140003C0140C2
:100D800010B572B601F0E8FB02F078FE4FF47A700D
:100D900002F096FE4FF4806001F0D6F800F05AFDA4
:100DA00002F000F901F0DAF84FF47A7002F088FEF0
:100DB000FFF75CFF00F0AAFE01F040F800F016F823
:100DC00000F076F9012141F61F4000F0CDFF00212F
:100DD00041F61F4001F058FB00F0C2FB40F2CF216A
:100DE00040F2E73001F00AFC62B610BD08B50121FF
:100DF000082001F017FA4FF48050ADF800001020E1
:100E00008DF8030001208DF802006946014800F0CA
:100E1000C3FA08BD000C014000BFFEE7704721B1D6
:100E2000026842F00102026004E002684FF6FE73BD
:100E30001A400260704710B50022026847F6F0734E
:100E40009A430C6A8B6823430C6923434C69234300
:100E50008C692343CC6923434C6A23438C6A234324
:100E60001A430260CB6843600B6883604B68C360C1
:100E700010BD704710B54FF4006000F0BBF850B1E2
:100E8000012002F0C7F84FF4006000F0ADF84FF415
:100E9000006000F0A3F84FF4804000F0ABF850B1D0
:100EA000022002F0B7F84FF4804000F09DF84FF4B4
:100EB000804000F093F810BD10B5082000F09AF8BB
:100EC00040B1042002F0A6F8082000F08DF80820B8
:100ED00000F084F810BD10B5102000F08BF840B180
:100EE000032002F097F8102000F07EF8102000F0A8
:100EF00075F810BD10B54FF4807000F07BF888B322
:100F00004FF48071334800F01BFB012810D14102DF
:100F1000304800F015FB28B92F480068401E2E49C4
:100F2000086017E02C480068401C2B49086011E05D
:100F30004FF40071274800F003FB012805D1264833
:100F40000068401E2449086004E023480068401CF3
:100F5000214908604FF4807000F046F84FF480702B
:100F600000F03CF84FF4007000F044F888B34FF400
:100F70000071184800F0E4FA012811D10102154867
:100F800000F0DEFA012805D113480068401E12491E
:100F9000086016E010480068401C0F49086010E027
:100FA0004FF480710B4800F0CBFA28B90A4800686A
:100FB000401E0949086004E007480068401C0649D3
:100FC00008604FF4007000F00FF84FF4007000F06C
:100FD00005F810BD000C01406000002001490860C8
:100FE0007047000014040140014908607047000088
:100FF00014040140014600200022074B1B6803EA4D
:101000000102054B14331B680B4013B10AB10120D8
:1010100000E0002070470000000401400021234947
:101020008279002A3AD00A46126803689A430B462E
:101030001A600A1D126803689A430B1D1A60027930
:1010400011440A6803681A430A60184A0832126891
:1010500003689A43154B08331A601A1D1268036817
:101060009A43124B0C331A604279102A0ED11A1F80
:10107000126803681A430D4B08331A601A1D126870
:1010800003681A43094B0C331A600DE00749427993
:1010900011440A6803681A430A6005E002791144A2
:1010A0000A6803689A430A60704700000004014020
:1010B0001FB501212F4800F0FBF90121082001F0A4
:1010C000B1F80121084601F0ADF84FF48070ADF899
:1010D0000C0048208DF80F0003208DF80E0003A9A6
:1010E000254800F059F94FF40070ADF80C00482085
:1010F0008DF80F0003208DF80E0003A91E4800F0A4
:101100004BF90821012000F027F90921012000F006
:1011100023F94FF44070009000208DF80400102057
:101120008DF8050001208DF806006846FFF776FF70
:101130004FF4407000F008FF17208DF808000120E0
:101140008DF8090000208DF80A0001208DF80B00B1
:1011500002A800F0C1FE17208DF8080001208DF8CC
:1011600009008DF80A008DF80B0002A800F0B4FE0B
:101170001FBD000000023000000C014030B50446E5
:1011800004254FF4302000F06FF80546042D17D1E8
:101190000C48006940F002000A49086108464461B1
:1011A000006940F0400008614FF4302000F05CF826
:1011B00005460448006941F6FD710840014908618F
:1011C000284630BD0020024004200B49C96801F0C8
:1011D000010109B101200EE00749C96801F00401CD
:1011E00009B1022007E00449C96801F0100109B102
:1011F000032000E0042070470020024003480069FB
:1012000040F0800001490861704700000020024062
:1012100070B504460D460426F00200F025F8064697
:10122000042E11D10948006940F001000749086106
:101230002580F00200F018F806460448006941F6DF
:10124000FE71084001490861304670BD002002402F
:1012500002480349486003484860704723016745D6
:1012600000200240AB89EFCD00B502460423FFF712
:10127000ABFF034603E0FFF7A7FF0346521E012B17
:1012800001D1002AF7D102B90523184600BD00009C
:1012900010B504462948844208D10121042000F0F9
:1012A000D1FF0021042000F0CDFF46E02448844215
:1012B00008D10121082000F0C5FF0021082000F01E
:1012C000C1FF3AE01F48844208D10121102000F0FC
:1012D000B9FF0021102000F0B5FF2EE01A4884422B
:1012E00008D10121202000F0ADFF0021202000F0D6
:1012F000A9FF22E01548844208D10121402000F0D6
:10130000A1FF0021402000F09DFF16E0104884421C
:1013100008D10121802000F095FF0021802000F0FD
:1013200091FF0AE00B48844207D10121801500F0AB
:1013300089FF0021A01500F085FF10BD00080140C5
:10134000000C014000100140001401400018014051
:10135000001C01400020014030B500228B071C0F0B
:101360000F2303FA04F20B4B8C1053F824309343F1
:10137000084C8D1044F8253023468C1053F8243047
:101380008C07240F00FA04F42343024C8D1044F818
:10139000253030BD080001402DE9F041024600250E
:1013A0000026002000230024002791F803C00CF041
:1013B0000F0591F803C00CF0100CBCF1000F03D026
:1013C00091F802C04CEA050591F800C0BCF1000F8D
:1013D00031D0146800202BE04FF0010C0CFA00F320
:1013E000B1F800C00CEA03069E4220D183004FF002
:1013F0000F0C0CFA03F7BC4305FA03FC4CEA040497
:1014000091F803C0BCF1280F06D14FF0010C0CFA83
:1014100000FCC2F814C00AE091F803C0BCF1480F08
:1014200005D14FF0010C0CFA00FCC2F810C0401CB2
:101430000828D1D31460B1F800C0BCF1FF0F34DD2F
:10144000546800202EE000F1080C4FF0010808FA63
:101450000CF3B1F800C00CEA03069E4221D18300D0
:101460004FF00F0C0CFA03F7BC4305FA03FC4CEAEF
:10147000040491F803C0BCF1280F05D100F1080C59
:1014800008FA0CF8C2F8148091F803C0BCF1480FB8
:1014900007D100F1080C4FF0010808FA0CF8C2F867
:1014A0001080401C0828CED35460BDE8F0810000B5
:1014B000F0B50A46002300240021002500F0004674
:1014C000B6F1004F02D11D4EF16901E01B4E71686B
:1014D000C0F3034583B200F44016B6F5401F08D1AF
:1014E00021F07061154E766826F07066134F7E60AD
:1014F00012E000F48016B6F5801F06D1032606FA26
:1015000005F4A14341F0706106E0460D360103FA8F
:1015100006F6B14341F0706122B1460D360103FA7F
:1015200006F6314300F00046B6F1004F02D1034EFB
:10153000F16101E0014E7160F0BD0000000001406A
:101540000246002093680B400BB1012000E0002010
:101550007047416170470161704700BFFEE70000BE
:1015600000B58FB001217148FFF7A2FF01210846A5
:1015700000F058FE0121042000F054FE012108462D
:1015800000F030FE4FF40040ADF8380048208DF8F0
:101590003B0003208DF83A000EA96548FFF7FCFEDA
:1015A0000121042000F03EFE4FF48050ADF83800D9
:1015B00048208DF83B0003208DF83A000EA95C48C6
:1015C000FFF7EAFE0121042000F02CFE4FF400603A
:1015D000ADF8380048208DF83B0003208DF83A0024
:1015E0000EA95348FFF7D8FE0121082000F01AFE8B
:1015F0004FF48040ADF8380004208DF83B00032004
:101600008DF83A000EA94B48FFF7C6FE01210820CD
:1016100000F008FE0820ADF8380004208DF83B00EB
:1016200003208DF83A000EA94248FFF7B5FE0121CC
:10163000082000F0F7FD1020ADF8380004208DF8E8
:101640003B0003208DF83A000EA93A48FFF7A4FEAC
:101650003748FFF71DFE36480830019036480290A3
:1016600000200390012004900020059006904FF484
:101670008070079080000890202009904FF440501F
:101680000A9000200B9001A92C48FFF7D4FB012100
:101690002A48FFF7C4FB0E210120FFF75DFE03215E
:1016A0000120FFF759FE04210120FFF755FE44F207
:1016B00018000C9000208DF834000C208DF83500B7
:1016C00001208DF836000CA8FFF7A8FC28208DF823
:1016D000000004208DF8010000208DF80200012098
:1016E0008DF80300684600F0F7FB09208DF8000034
:1016F00005208DF8010000208DF8020001208DF8F2
:101700000300684600F0E8FB0A208DF80000062080
:101710008DF8010000208DF8020001208DF80300F3
:10172000684600F0D9FB0FB000BD00000002300099
:1017300000080140000C014024000020800002400D
:1017400010B50E48008800F41840B0F5C05F0DD009
:10175000B0F5084F06D0B0F5104F0BD1012001F0C5
:1017600059FC08E0052001F055FC04E0062001F0DA
:1017700051FC00E000BF00BF10BD000024000020AD
:101780002DE9F0470446884615464FF0000900262B
:10179000002721E0E85D203800F0FF097E2C04DD01
:1017A000002408F1010000F0FF084146204600F047
:1017B000BBFC00260AE009EB49010A4A02EB4101A1
:1017C000885D012100F0C8FC701CC6B2062EF2DB59
:1017D000A01DC4B2781CC7B2E85D0028DAD1BDE80C
:1017E000F08700007A6800082DE9F0470446884633
:1017F00015464FF000090026002723E0E85D203859
:1018000000F0FF097E2C04DD002408F1010000F047
:10181000FF084146204600F087FC00260CE009EB5B
:1018200049010B4A02EB4101895DC1F1FF00012131
:1018300000F092FC701CC6B2062EF0DBA01DC4B2F4
:10184000781CC7B2E85D0028D8D1BDE8F087000059
:101850007A68000808B50121102000F0E3FC4FF47D
:101860000050ADF8000010208DF8030001208DF825
:10187000020069460148FFF78FFD08BD00100140D6
:1018800010B500200E4908600E48006820F0704036
:101890000C4908600846006840F04050086000208D
:1018A0000949C1F89C0100F011F8012004490860C1
:1018B00000F00CF800200449C1F8980110BD0000A8
:1018C00098812142000C01400080214210B5022085
:1018D00002F01CF910BD000008B50121082000F03D
:1018E000A1FCC020ADF8000010208DF803000320FB
:1018F0008DF8020069460248FFF74EFD08BD000062
:10190000000C014010B500200E4908600E48006828
:1019100020F070400C4908600846006840F04050D4
:10192000086001200949C1F89C01FFF7CFFF0120A1
:1019300004490860FFF7CAFF00200449C1F8980174
:1019400010BD000098812142000C0140008021421E
:1019500070B5054600241648006820F07040144910
:1019600008600846006840F000400860002614E067
:10197000002010490860FFF7A9FF01200E49C1F8B7
:1019800098016006040E0B487C38006808B1601CA2
:10199000C4B2FFF79BFF701CC6B2082EE8DB15B976
:1019A000FFF7B0FF01E0FFF76BFF204670BD0000BE
:1019B000000C0140988121420080214270B504460C
:1019C0001248006820F0704010490860084600681E
:1019D00040F04050086000200D490860002512E0EA
:1019E000E0090B49091D08606006040E0120094941
:1019F000C1F89801FFF76AFF002005490860FFF76A
:101A000065FF681CC5B2082DEADB70BD000C014003
:101A1000988121420080214210B50E48006820F0D4
:101A200070400C4908600846006840F0405008606B
:101A30000120094908600949C1F89801FFF746FFEC
:101A4000002005490860FFF741FF00200349C1F865
:101A5000980110BD000C01409C8121420080214270
:101A600010B50E48006820F070400C490860084628
:101A7000006840F0405008600020094908600949AA
:101A8000C1F89C01FFF722FF0120054908600549C4
:101A9000C1F89C01FFF71AFF10BD0000000C0140C7
:101AA000988121420080214210B50024144800682A
:101AB00020F07040124908600846006840F000407D
:101AC000086001200F490860FFF700FF01200E4960
:101AD000C1F89801FFF7FAFE07E0601CC4B2FA2CC7
:101AE00003DDFFF7BDFF012010BD06488038006808
:101AF0000028F2D10349091F086000BFF4E7000085
:101B0000000C01409C8121420080214210B5FFF76A
:101B1000E3FE80216B2000F0D3F8642001F0D0FFB9
:101B200000216B2000F0CCF8032000F087F80020A3
:101B300000F07CF8C82000F0A6F80021382000F062
:101B4000BFF800216A2000F0BBF80021232000F03C
:101B5000B7F8752000F013F80446682C0BD101216A
:101B60006B2000F0ADF800216C2000F0A9F8C8202F
:101B700000F089F801E0012010BD0020FCE770B5FD
:101B80000446FFF749FFD020FFF718FFFFF78CFF4F
:101B90002046FFF713FFFFF787FFFFF73DFFD12038
:101BA000FFF70CFFFFF780FF0020FFF7D1FE05468F
:101BB000FFF756FF284670BD2DE9F04106460F4657
:101BC00014461D46FFF728FF002141EA4601C8B22E
:101BD000FFF7F4FEFFF768FF20B1FFF741FF012098
:101BE000BDE8F0813846FFF7E9FEFFF75DFFFFF73C
:101BF00013FF012101EB4601C8B2FFF7DFFEFFF73B
:101C000053FF0DE0012C04D10020FFF7A1FE287046
:101C100003E00120FFF79CFE2870601EC4B26D1C1B
:101C2000002CEFD1FFF71CFF0020D9E710B50446C8
:101C3000E006010E1C2000F043F810BD10B504466C
:101C4000E006010E1B2000F03BF810BD70B5044605
:101C50000025BC2C01DB012510E0622C01DB0225F4
:101C60000CE02A2C01DB032508E0142C01DB042501
:101C700004E00A2C01DB052500E0062529461A2090
:101C800000F01EF870BD70B50446B4F57A7F01DD32
:101C90004FF47A74042C00DA04244FF47A7090FB29
:101CA000F4F0401EC5B22946192000F009F8054697
:101CB000264604EBD671C1F34F00FFF7C7FF70BD96
:101CC00070B505460C46FFF7A7FED020FFF776FE5D
:101CD000FFF7EAFE18B1FFF7C3FE012070BD2846EA
:101CE000FFF76CFEFFF7E0FE2046FFF767FEFFF709
:101CF000DBFE18B1FFF7B4FE0120EFE7FFF7B0FEFF
:101D00000020EBE72DE9F04105460E4617469846C0
:101D1000FFF782FE002141EA4501C8B2FFF74EFEFF
:101D2000FFF7C2FE20B1FFF79BFE0120BDE8F08166
:101D30003046FFF743FEFFF7B7FE00240CE018F82B
:101D40000400FFF73BFEFFF7AFFE18B1FFF788FE78
:101D50000120EBE7601CC4B2BC42F0DBFFF780FE61
:101D60000020E3E700BFFEE730B589B004460D462A
:101D700001210C2000F056FA0121084600F052FA29
:101D80000121C80200F04EFA4FF48070ADF8200037
:101D900018208DF8230003208DF8220008A924487C
:101DA000FFF7FAFA4FF40050ADF8200018208DF834
:101DB000230003208DF8220008A91E48FFF7ECFA43
:101DC000ADF814500020ADF81600ADF81840ADF88D
:101DD0001A008DF81C0005A9174800F03DFD702081
:101DE000ADF804000120ADF806000420ADF80800AD
:101DF0000020ADF80A00ADF80C00ADF80E004FF46D
:101E00008070ADF810000020ADF8120001A90A485A
:101E100000F076FC0121084800F024FC012106486E
:101E200000F02FFC0121044800F037FC09B030BD60
:101E300000080140000C0140002C014070B5002456
:101E4000FFF74AFD02F0FAFF00283DD1782003F0A9
:101E5000A5FDC4B20CB1012070BD782002F0DCFEFB
:101E6000C4B20CB10220F7E7642003F049FDC4B20C
:101E70000CB10320F0E701F0E5FFC4B20CB104207F
:101E8000EAE7134802F084FE054602F04FF9C4B2B7
:101E90000CB10520E0E740F2731001F07BFEC4B204
:101EA0000CB10620D8E7642002F070F8C4B20CB17F
:101EB0000720D1E703F01AFE0446012003F01CFCC2
:101EC000C4B21CB10920C7E70A20C5E70020C3E758
:101ED000540000207047000070B5002100230F223D
:101EE000C47804B3154C246804F4E064C4F5E064D9
:101EF000210AC1F10403CA40447804FA03F184784A
:101F00001440214309010E4C0678A155047804F0D1
:101F10001F050124AC4005786D11AD0005F1E025E9
:101F2000C5F8004109E0047804F01F050124AC4025
:101F3000044D0678761145F8264070BD0CED00E0A2
:101F400000E400E080E100E002490143024A116040
:101F5000704700000000FA050CED00E070B50024A9
:101F600019E004F1B001C8B2002100F0F5F8002139
:101F7000084600F0F1F80021102000F0EDF80025EF
:101F800005E00121002000F0E7F8681CC5B2802DB3
:101F9000F7DB601CC4B2082CE3DB70BD70B50446EF
:101FA00004F1B001C8B2002100F0D6F800210846C3
:101FB00000F0D2F80021102000F0CEF8002505E056
:101FC0000121002000F0C8F8681CC5B2802DF7DBA5
:101FD00070BD000008B50121082000F023F948F287
:101FE000C300ADF8000010208DF8030003208DF829
:101FF000020069464B48FFF7CFF948F2C101494852
:10200000FFF7A9FA4FF400414648FFF7A4FA64200D
:1020100001F056FD4FF400414248FFF79AFAC820FC
:1020200001F04EFD4FF400413E48FFF794FA0021C5
:10203000AE2000F091F80021084600F08DF8002154
:10204000102000F089F80021402000F085F80021E0
:10205000812000F081F80021CF2000F07DF80021E0
:10206000A02000F079F80021C02000F075F80021D0
:10207000A62000F071F80021A82000F06DF80021E2
:102080003F2000F069F80021D32000F065F800211E
:10209000084600F061F80021D52000F05DF800212D
:1020A000802000F059F80021D92000F055F80021D7
:1020B000F12000F051F80021DA2000F04DF8002165
:1020C000122000F049F80021DB2000F045F8002143
:1020D000402000F041F80021202000F03DF80021D0
:1020E000022000F039F800218D2000F035F80021A1
:1020F000142000F031F80021A42000F02DF8002178
:10210000A62000F029F80021AF2000F025F80021DA
:10211000AF2000F021F8FFF721FF0021084600F072
:1021200003F808BD000C014070B504460D4605F1EA
:10213000B001C8B2002100F00FF8102141EA1410DC
:10214000002100F009F804F00F0141F00100002126
:1021500000F002F870BD000070B504460E4626B1CE
:1021600001211848FFF7F7F903E001211548FFF7AF
:10217000F0F902211348FFF7ECF9002517E04021A0
:102180001048FFF7E6F904F0800020B180210D48E7
:10219000FFF7E1F903E080210A48FFF7DAF940216F
:1021A0000848FFF7D8F96006040E681CC5B2082D70
:1021B000E5DB02210348FFF7CEF901210148FFF7D3
:1021C000CAF970BD000C01407047000001460020B4
:1021D000034A506820F440400843506070470000B4
:1021E0000010024029B1064A52690243044B5A6169
:1021F00004E0034A52698243014B5A617047000070
:102200000010024029B1064AD2690243044BDA6148
:1022100004E0034AD2698243014BDA61704700004F
:102220000010024029B1064A92690243044B9A61A8
:1022300004E0034A92698243014B9A6170470000AF
:102240000010024029B1064AD2680243044BDA600A
:1022500004E0034AD2688243014BDA607047000011
:102260000010024030B503460C461546002207E038
:10227000184600F008F844F822009B1C501C82B25B
:10228000AA42F5DB30BD0146088870472DE9F05FB2
:1022900080468A461746B8F1006F02D3334880451E
:1022A00001D3BDE8F09FFEF7D3FFA8F1006B4FEA22
:1022B0009B25CBF34809C9F50074A74200DC3C46D6
:1022C0004DE04FF0006101EB85208A142849FFF7AB
:1022D000C9FF00260BE009EB0600254951F8200054
:1022E0004FF6FF71884200D003E0701C86B2A64210
:1022F000F1DB00BFA6421BDA4FF0006101EB852045
:10230000FEF73CFF002608E05AF8260006EB09011C
:10231000174A42F82100701C86B2A642F4DB4FF047
:10232000006101EB85208A14114900F023F804E0D4
:1023300022465146404600F01DF8A74200D10FE06A
:102340006D1C4FF000090AEB840AA044381B87B2C9
:10235000B7F5007F02DD4FF4007400E03C46B0E7C3
:1023600000BFFEF74BFF00BF9BE700000000010825
:10237000100900202DE9F04105460E4617460024BD
:1023800008E036F8240081B22846FEF741FFAD1C74
:10239000601C84B2BC42F4DBBDE8F081704710B52C
:1023A00000F002F810BD00000CB500200190009074
:1023B0003348006840F480303149086000BF30483D
:1023C000006800F4003000900198401C01900098D3
:1023D00018B90198B0F5A06FF1D12948006800F450
:1023E000003010B10120009001E000200090009822
:1023F000012843D12348006840F0100021490860BB
:102400000846006820F0030008600846006840F0B5
:10241000020008601A484068194948600846406848
:1024200048600846406840F480604860084640685C
:1024300020F47C1048600846406840F4E81048608A
:102440000846006840F08070086000BF0C480068D3
:1024500000F000700028F9D00948406820F003001F
:10246000074948600846406840F00200486000BFE5
:102470000348406800F00C000828F9D10CBD0000AA
:10248000001002400020024030B589B005460C46DD
:1024900001210220FFF7B6FE01210920FFF7C2FE4D
:1024A00001211F48FFF704F82020ADF820001C2070
:1024B0008DF8230003208DF8220008A91948FEF7A3
:1024C0006BFFADF81850ADF814400020ADF81A00BD
:1024D000ADF8160005A9144800F0BEF96020ADF86B
:1024E00004000120ADF806000020ADF80A00ADF8A8
:1024F0000C0001A90C4800F04FF901210A4800F036
:10250000CCF80821084800F099F90121064800F0AC
:10251000A9F80121044800F0B4F809B030BD00006A
:1025200000081A00000C014000040040042808D1F3
:102530004FF0E021096941F004014FF0E022116100
:1025400007E04FF0E021096921F004014FF0E0229B
:10255000116170477047000010B51348006840F0E3
:1025600001001149086008464068104908400E49BA
:102570004860084600680E4908400B490860084654
:10258000006820F4802008600846406820F4FE00BF
:1025900048604FF41F008860FFF701FF4FF00060B4
:1025A0000449086010BD0000001002400000FFF860
:1025B000FFFFF6FE08ED00E04FF08040008A4FF08C
:1025C0008040008A20F001004FF08041088270476F
:1025D00010B50121074800F078F850B106480068AE
:1025E000401D05490860FFF7ABF80121014800F0E4
:1025F00045F810BD00080040000000207FB50546EA
:102600000C4601210420FFF7FDFDADF80850ADF8A0
:1026100004400020ADF80A00ADF8060001A91048FA
:1026200000F01AF9012211460D4800F05FF81E2053
:102630008DF8000001208DF8010003208DF80200C4
:1026400001208DF803006846FFF746FC01221102C5
:10265000034800F031F80121014800F012F87FBD75
:102660000008004021B1028842F08002028004E0AC
:1026700002884FF67F731A4002807047CA43028275
:10268000704721B1028842F00102028004E0028812
:102690004FF6FE731A400280704731B1B0F8442003
:1026A00042F40042A0F8442005E0B0F84420C2F310
:1026B0000E02A0F8442070471AB183890B4383812E
:1026C00002E083898B438381704730B50246002046
:1026D00000230024158A05EA0103958905EA01040F
:1026E00013B10CB1012000E0002030BD1AB1838984
:1026F0000B43838102E083898B4383817047000011
:1027000070B5002400220023058C4FF6FE7635407C
:102710000584028C8388048B4FF68F752C40B51E80
:102720002C400D882C43751E2A400D892A434D8864
:102730002A43144DA8420BD0134DA84208D0134D84
:10274000A84205D0124DA84202D0124DA84213D182
:102750004FF6F7752A404D892A434FF6FB752A40FC
:102760008D882A434FF6FF652B404FF6FF552B40CF
:102770008D892B43CD892B4383800483CD88858627
:10278000028470BD002C0140003401400040014033
:10279000004401400048014070B50024002200239D
:1027A000058C4FF6EF7635400584028C8388048BC8
:1027B00048F6FF752C404FF6FF452C400D884FF62C
:1027C000FF7606EA05252C434FF6DF752A400D8972
:1027D00006EA05152A434D8806EA05152A43154DD4
:1027E000A84202D0144DA8421DD14FF67F752A4051
:1027F0004D894FF6FF7606EA05152A434FF6BF7559
:102800002A408D8806EA05152A434FF6FF352B40EE
:102810004FF2FF752B408D8906EA85052B43CD8944
:1028200006EA85052B4383800483CD8805870284CF
:1028300070BD0000002C0140003401400A46002118
:10284000018B4FF2FF7319404FF6FF7303EA022327
:102850001943018370470000002202881D4B9842F3
:102860000ED01D4B98420BD0B0F1804F08D01B4BBF
:10287000984205D01A4B984202D01A4B984204D184
:102880004FF68F731A404B881A43174B984207D064
:10289000164B984204D04FF6FF431A40CB881A4398
:1028A00002808B8883850B8803850A4B98420BD066
:1028B000094B984208D00E4B984205D00D4B9842D8
:1028C00002D00D4B984201D10B7A038601238382FB
:1028D00070470000002C014000340140000400401B
:1028E00000080040000C00400010004000140040B0
:1028F00000400140004401400048014010B58648B6
:10290000046886480078012803D0844800780328AA
:1029100001D1FFF75FFB81480078072878D2DFE814
:1029200000F0F4042B1C5C91C30000BF7C480068DD
:102930000028FBD078480068001BB0F5967F06D2CF
:102940007848007880F001007649087004E000F0D3
:1029500009FB012074490870D8E000BF7348006883
:102960000028FBD06C480068001BB0F5487F02D3FC
:102970006F4800F055FBC9E000BF6C482830006884
:102980000028FAD064480068001BB0F5967F21D279
:102990006448007870B163484088002805DD6148CC
:1029A0004088401E5F49488016E05E4880885D4947
:1029B000488011E05B4890F90600002806DD594880
:1029C0008079401E40B25749887105E0032055497F
:1029D000887101E072B662B698E000BF5348001FEC
:1029E00000680028FAD04C480068001BB0F5967FBC
:1029F00023D24C48007880B14A48408849498988A8
:102A0000884206DA47484088401C4649488018E01A
:102A10007BE000204349488013E0424890F90600DB
:102A2000032806DA3F488079401C40B23D4988714E
:102A300007E000203B49887103E000203D49C1F8D0
:102A4000B40063E000BF3648103000680028FAD0B8
:102A500034480078C0B13348408800EB80003649E4
:102A600051F8200000682F49498801EB8101324A62
:102A700002EB8101498A08442A49498801EB810116
:102A800052F8211008600EE02648408825498988C0
:102A9000884205DA23484088401C2249488002E0E9
:102AA00000202049488031E000BF1D48001D00681B
:102AB0000028FAD01B480078C0B11A48408800EBC3
:102AC00080001D4951F8200000681649498801EB33
:102AD0008101194A02EB8101498A401A114949884A
:102AE00001EB810152F8211008600DE00D4840888B
:102AF000002805DD0B484088401E0A49488003E055
:102B0000084880880749488000E000BF00BF0020D7
:102B10000249087010BD00000000002022000020C3
:102B20002C012142F80800201011002010812142C0
:102B300038080020F41100206800002010B5094872
:102B400090F90600002807DB064991F9060000F01D
:102B5000A1F800F019F804E0024991F9060000F02C
:102B600003F810BDF808002010F1030F07D010F192
:102B7000020F03D0B0F1FF3F02D102E001E000E01C
:102B800000BF00BF7047000038B53C484488002CA7
:102B90001ADD601E00EB8000394901EB8000001D4A
:102BA000631E38A200210090052000F007FA601E85
:102BB00000EB8000324951F8200035A26021036803
:102BC000052000F0FBF902E00520FFF7E7F92B48AC
:102BD0000078C0B104EB8400294901EB8000001D9E
:102BE000234628A200210090062000F0E7F904EB1C
:102BF0008400234951F8200025A2602103680620A3
:102C000000F0F2F917E004EB84001D4901EB8000AD
:102C1000001D23461BA200210090062000F0E4F9CD
:102C200004EB8400164951F8200019A260210368C2
:102C3000062000F0C3F911488088A0421ADD601C0C
:102C400000EB80000E4901EB8000001D631C0DA20B
:102C500000210090072000F0B1F9601C00EB80001B
:102C6000074951F820000AA260210368072000F0FC
:102C7000A5F902E00720FFF791F938BDF808002018
:102C800068000020253032642E252D31337300007A
:102C9000253564002DE9FC41044665480068A042E2
:102CA0000AD0002504E029466D1CC8B2FFF776F96A
:102CB000052DF8DB5E48046034B1012C53D0022CA2
:102CC0007CD0032C79D1A4E05A4800684FF47A7183
:102CD00090FBF1F201FB1200642190FBF1F65548E4
:102CE00000684FF47A7190FBF1F75348CDE9007614
:102CF000037852A20021084600F060F94E48C068EF
:102D00004FF47A71B0FBF1F201FB12006421B0FBC9
:102D1000F1F64948C0684FF47A71B0FBF1F73B46D1
:102D20004BA200210120009600F048F94BA200219F
:102D3000022000F043F949A20021032000F03EF9EF
:102D40004748008F642190FBF1F201FB12064448D2
:102D5000008F90FBF1F73B4642A200210420009631
:102D600000F02CF961E04348C06800903C4842A262
:102D70000021436B084600F021F93948406A009071
:102D8000374841A20021C369012000F017F93448F7
:102D9000006B0090324840A20021C36A022000F07C
:102DA0000DF92EA20021032000F008F92BA200212A
:102DB000042000F003F938E000E035E0284800691D
:102DC0000090274838A20021C368084600F0F6F8B2
:102DD0003A4840680090394839A200210368012030
:102DE00000F0ECF81E483AA200210368022000F02F
:102DF000E5F81B4880690090194838A20021436912
:102E0000032000F0DBF815A20021042000F0D6F822
:102E10000BE01348006C0090114834A20021C36BF2
:102E2000042000F0CBF800E000BF00BFBDE8FC814B
:102E30006400002000000020101100205374617411
:102E4000653A2531642C543A2534642E25316400CA
:102E500052543A2533642E253164000020000000CE
:102E600038110020426174743A2532642E253032C4
:102E700064560000F4110020416E673A2536642C38
:102E8000533A25366400000047783A2536642C47CB
:102E90007A3A25366400000041793A2536642C419F
:102EA0007A3A2536640000005370656564204C3A18
:102EB0002534642C523A253464000000D8110020D7
:102EC00050574D204C3A2535642C523A2535640034
:102ED00053706565643A20253664000053756D4C67
:102EE0003A2536642C523A2536640000436F756EDD
:102EF000743A2536642C4650533A2533640000005A
:102F000010B5002421E004EB8402134B53F8221087
:102F1000124A02EB44000222FFF7A4F904EB8400FA
:102F20000D4951F820000068B0F5004F0CDD04EBAE
:102F3000840051F820000068A0F5803004EB840183
:102F4000054A52F821100860641C05488088401C1E
:102F5000A042D8DC10BD00006800002000FC000882
:102F6000F808002010B5E4B0002409E004EB840068
:102F7000084951F8200000684DF82400601CC4B2D4
:102F8000642CF3DB4FF4C87269460348FFF77EF9FF
:102F900064B010BD6800002000FC000810B5FFF709
:102FA00019F810BD10B5FFF7F9FF02F031FE024924
:102FB0008880FFF7A5FF10BDF80800200FB430B5DA
:102FC00087B004460D460DA80090152101A8009B6E
:102FD0000C9A00F089F801AA21462846FEF7D0FB9A
:102FE00007B030BC5DF814FB0FB430B587B00446B1
:102FF0000D460DA80090152101A8009B0C9A00F029
:1030000073F801AA21462846FEF7EEFB07B030BC54
:103010005DF814FB01490870704700002200002091
:1030200010B50446C02221460148FDF7ACF810BD9A
:10303000F411002010B540F22551064800F00EF8BA
:1030400038B1044800F034F8C4B22146024800F018
:1030500034F810BD003801400048004070B5024609
:10306000002400230025002040F66A16B14200D15A
:1030700000BFC1F3421501F01F03012606FA03F356
:10308000012D02D19689334006E0022D02D1168A25
:10309000334001E0968A33400C12012606FA04F40C
:1030A0001688344013B10CB1012000E0002070BD3F
:1030B00001468888C0F308007047C1F30802828087
:1030C000704700BFFEE700000FB4054B10B503A921
:1030D000044A029800F0DCF810BC5DF814FB000014
:1030E000414500081C0000207CB5491E1C461546C1
:1030F000CDE90001044B6A462146284600F0C8F895
:10310000009A002111707CBDBF39000802E008C898
:10311000121F08C1002AFAD170477047002001E051
:1031200001C1121F002AFBD1704700002DE9FF5F8B
:10313000DDE90220010DDDF838B0024318D044F675
:103140001050A1F2FF3141430D140F98012820D0F7
:10315000A5EB0B00401C5FEA000A4FF00004474E4D
:10316000DFF81C91A046504616D5CAF1000728E0AA
:103170000F98012443A2012808D0002100980F9B3A
:10318000C0E90021C0E90243BDE8FF9F6FEA0B01DF
:10319000F4E7CBF10000DEE7074612E0F80707D0BE
:1031A0002246334640464946FDF78DF9804689461A
:1031B0002246334610461946FDF785F904460E4669
:1031C0007F10002FEAD1DDE90201BAF1000F42467B
:1031D0004B4602DAFDF777F901E0FDF7E6F9044620
:1031E0000E460022284BFDF7B3FB03D84FF0FF300B
:1031F000014607E00022254B20463146FDF7BCF88A
:10320000FDF78EFB102409E0002C0ADB0A220023C4
:10321000FDF7A0FA019B30321A55641E50EA0102F4
:10322000F2D1641C019AC4F1110314440F9A012ACB
:1032300003D0012208430DD10AE0084304D0002046
:103240004FF0110B0F9080E7A3EB0B056D1E0DE007
:103250005B4504DD4FF0000205F1010504E003DAEF
:103260004FF00002A5F10105002AECD000980F995B
:10327000C0E90231C0E9004586E7000000002440B3
:103280000000F03F300000000000F0430000E03F8D
:103290002DE9FF4F95B09B468946064600250FE273
:1032A000252877D100242746F84A0121059400E01B
:1032B000044316F8013F203B01FA03F01042F7D116
:1032C00030782A2811D06FF02F033078A0F1300227
:1032D000092A16D8059A44F0020402EB820203EB95
:1032E00042021044761C0590EFE759F8042B059232
:1032F000002A03DA504244F40054059044F00204DA
:10330000761C30782E2816D116F8010F44F00404EC
:103310002A280DD06FF02F023078A0F13003092B4E
:1033200009D807EB870302EB4303C718761CF3E7C2
:1033300059F8047B761C30786C280FD006DC4C28BA
:1033400017D068280DD06A2814D104E0742810D052
:103350007A280FD10DE044F400140AE044F48014FC
:1033600001E044F440147278824202D104F58014E2
:10337000761C761C307866280BD013DC582877D062
:1033800009DC002875D04528F6D04628F4D0472817
:103390001AD19DE118E0632835D0642879D06528DA
:1033A00012D195E1702873D008DC6728F1D0692824
:1033B0006FD06E280DD06F2806D1B5E073282CD0C1
:1033C000752875D0782874D05A46179990476D1C87
:1033D00075E1C4F30250022809D003280DD0D9F8B2
:1033E000001004280DD00D6009F1040967E1D9F837
:1033F0000010EA17C1E90052F6E7D9F800100D8075
:10340000F2E70D70F0E719F8041B8DF800100020AA
:103410008DF80100EA46012003E059F804AB4FF0B3
:10342000FF3061074FF0000102D40DE008F1010107
:103430008846B9420FDA8045F8DB1AF808100029EF
:10344000F4D108E008F1010188468142FADB1AF85C
:1034500008100029F6D105985B46A0EB0807214625
:103460003846179A00F094FA284400EB080507E064
:103470004DE029E10DE01AF8010B5A4617999047E3
:10348000B8F10108F7D25B4621463846179A13E196
:1034900042E00A220092C4F302524FF0000A022ACC
:1034A00008D059F804CB032A4FEAEC710AD00DE09A
:1034B00029E02AE009F1070121F00702F2E802C140
:1034C000914609E00FFA8CFC4FEAEC71042A03D113
:1034D0004FFA8CFC4FEAEC71002907DA0A4600210A
:1034E000DCF1000C61EB02012D2202E0220504D583
:1034F0002B228DF80420012203E0E20701D02022D4
:10350000F7E7904659E00A2102E010220DE0102171
:103510004FF0000A00910BE010224FF0000A44F037
:1035200004040827009203E008224FF0000A0092EA
:10353000C4F30252022A05D059F804CB0021032A11
:1035400008D009E009F1070121F00702F2E802C101
:10355000914605E01FFA8CFC042A01D10CF0FF0C07
:103560004FF00008220728D5702806D0009B83F072
:10357000100353EA0A0305D00EE040228DF8042020
:10358000012208E05CEA010206D030228DF8042016
:103590008DF8050002229046009B83F0080353EA51
:1035A0000A030AD15CEA010201D1620705D5302283
:1035B0008DF804204FF001087F1E582804D034A055
:1035C00003900EA802900DE036A0F9E7534660463E
:1035D000009AFDF7BFF884460398825C0298401E6B
:1035E000029002705CEA0100F0D1029806A9081A64
:1035F00000F1200A600702D524F4803400E001279E
:10360000574502DDA7EB0A0000E0002000EB0A01AD
:10361000009005984144401A0590E00306D45B46AB
:103620002146179A059800F0B3F90544002706E0F3
:1036300001A85A46C05D179990476D1C7F1C4745ED
:10364000F6DBE0030CD55B462146179A059800F09F
:103650009FF9054404E030205A46179990476D1CA5
:103660000099481E00900029F5DC08E002980299B4
:103670005A460078491C0291179990476D1CBAF17F
:103680000001AAF1010AF1DC65E10000092801004E
:1036900030313233343536373839616263646566C8
:1036A000000000003031323334353637383941428A
:1036B000434445460000000000F058F90544761CDC
:1036C000307800287FF4ECAD19B02846BDE8F08FC3
:1036D000620700D4062709F1070222F0070CFCE874
:1036E0000223E14603F000485FEA080C02D00FF223
:1036F000702C0DE05FEA045C02D50FF2682C07E045
:103700005FEAC47C02D00FF2602C01E0AFF2700CD3
:103710004FF0FF3823F00043CDF850C065280CD09F
:1037200006DC452809D046281DD047283DD13DE07C
:10373000662818D067287ED138E00021112F01DBE0
:10374000112000E0781CCDE9000106A90EA8FFF7C2
:10375000EDFCDDE90F010E9A03910021009207F1C3
:10376000010A04914DE04FF000400097CDE90110AF
:1037700006A90EA8FFF7DAFCDDE90F0203920E9B03
:1037800011990022DDF80CA00093049211B9791C64
:1037900000EB010AB7EB0A0004D4C0F1FF3007F1D7
:1037A000010A0490AAEB0700019044E0012F00DA1F
:1037B00001270021112F01DD112000E03846CDE95D
:1037C000000106A90EA8FFF7B1FCDDE90F010E9A72
:1037D0000391002104910092BA4621070CD4039969
:1037E000514500DA8A46BAF1010F05DD009AAAF1C7
:1037F0000101515C302908D0B84202DA10F1040FFF
:1038000006DA0121CDE9011015E0AAF10101E9E78D
:10381000002805DC049901440491AAEB000102E0B0
:10382000411C514500DD8A460499401A401C019014
:103830004FF000400290200704D40198504501DB6E
:10384000CDF8048000208DF84F0002980DF14F074D
:10385000B0F1004F25D02B200E9002984FF00208B7
:1038600000280CDA404202902D200E9007E00A2139
:103870000298FCF759FF3031029007F8011DB8F1AA
:103880000001A8F10108F2DC02980028EFD1791EAE
:103890000E980870307800F0200040F0450007F8DE
:1038A000020D12A8C01B00F107081498007800B19F
:1038B000012000EB0A01019801EBE07105984144F9
:1038C000401A401E0590E00306D45B462146179A35
:1038D000059800F05DF805441498007818B15A4630
:1038E000179990476D1CE00324D55B462146179A33
:1038F000059800F04DF805441CE00498002807DB0B
:10390000DDE90301884203DD0098405C179901E07E
:10391000179930205A469047049805F10105401C3C
:1039200004900198401E019004D12E205A46179908
:1039300090476D1CBAF10001AAF1010ADDDC05E037
:1039400017F8010B5A46179990476D1CB8F1000102
:10395000A8F10108F4DC5B462146179A0598ABE60E
:103960002D0000002B000000200000002DE9F04198
:10397000044600251E461746880404D405E039464F
:103980002020B0476D1C641EF9D52846BDE8F081A3
:103990002DE9F041044600251E469046C80301D596
:1039A000302700E02027880404D505E0414638464A
:1039B000B0476D1C641EF9D52846BDE8F0814A6801
:1039C000002A06D00A68531C0B6010704868401E1D
:1039D000486070472DE9FE4F06460F4600256846B1
:1039E00000F0BCFD002442E056F8240057F82410F3
:1039F000A0EB010ABAF1000F01DB514601E0CAF168
:103A000000010846FCF740FE83464FF08F41FCF76B
:103A100075FC80465DF824000021FCF771FE16D08D
:103A20005DF824104046FCF769FC82464FF07E5159
:103A3000FCF72CFC814629F0004A0F48416A5046A9
:103A4000FCF768FE12D20120A04005430EE00A48B0
:103A5000C1694046FCF754FE05D30748016A404659
:103A6000FCF758FE02D20120A0400543641C032C41
:103A7000BADB2846BDE8FE8F5C5C000810B56FF02D
:103A80000400FEF753FD0A4800680A49B0FBF1F054
:103A9000094908700846007800EB4001C1EBC010EE
:103AA0004FF6FF7101EAC0000449088010BD000014
:103AB0000400002000127A00180000201A000020E4
:103AC0000146114A12884A434FF0E0235A6100220E
:103AD0009A611A46126942F001021A6100BF4FF062
:103AE000E022106900F001021AB100F48032002ACD
:103AF000F5D04FF0E022126922F001024FF0E023EE
:103B00001A6100229A6170471A0000200146114A8A
:103B100012784A434FF0E0235A6100229A611A4614
:103B2000126942F001021A6100BF4FF0E0221069F1
:103B300000F001021AB100F48032002AF5D04FF0F3
:103B4000E022126922F001024FF0E0231A61002204
:103B50009A6170471800002038B5044664B12020EF
:103B60008DF8000028208DF8010030208DF802002B
:103B700038208DF8030004E0A32204216846FCF7F6
:103B800014FB6A46042140F69E2001F06FFF01F00D
:103B900059FB38BD3EB5044602208DF80000CA200E
:103BA0008DF80100E3208DF8020009208DF8030054
:103BB0006A460421682001F059FFA3208DF8000017
:103BC00004F0400048B1C0208DF80100C8208DF8F5
:103BD0000200C2208DF8030006E0A3208DF801004A
:103BE0008DF802008DF8030004F4C07048B1C420C1
:103BF0008DF80400CC208DF80500C6208DF8060055
:103C000006E0A3208DF804008DF805008DF806006D
:103C1000A3208DF807008DF808008DF809006A468A
:103C20000A2140F6A72001F021FF04F0030018B19B
:103C300020208DF8000002E0D8208DF800006A46B0
:103C4000012140F6B62001F011FF04F0200018B168
:103C5000012000F0ADF802E0002000F0A9F804F423
:103C6000C07008B304F4807060B1B2208DF8000019
:103C70008B208DF80100B6208DF802009B208DF876
:103C800003000BE0B0208DF8000080208DF80100CB
:103C9000B4208DF8020090208DF803006A460421BC
:103CA00040F6A22001F0E2FE04F0010020B3F8206B
:103CB0008DF800006A4601214FF40B6001F0D6FE3A
:103CC000FA21072000F046FB072000F00DFB012041
:103CD00000F02DFB642000F00DFC4FF4FA7000F0B2
:103CE0001CFCC821304800F0BDFA282000F0D6FAAC
:103CF0000A2000F0E6FA08E0D8208DF800006A46B5
:103D000001214FF40B6001F0B1FE04F0020018B184
:103D1000D9208DF8000002E0D8208DF800006A4616
:103D2000012140F23D7001F0A1FE04F0040018B141
:103D3000012000F069F802E0002000F065F804F0CE
:103D4000100018B10120FFF707FF02E00020FFF785
:103D500003FF44F008001549488101F073FA002080
:103D60001249887304F0400018B10846807B801D1A
:103D7000887304F4C07020B10C48807B801D0B490F
:103D8000887304F0140020B10848807B1030074984
:103D9000887304F0030020B10448807B001D0349B0
:103DA000887300203EBD000009E3CA02000900201C
:103DB0003EB504466CB10EA1D1E900208968CDE979
:103DC000002002916A4609214FF4976001F04EFEEF
:103DD0003EBD0AA2D2E900109268CDE9010200912D
:103DE0006A4609214FF4976001F040FEF0E70000B9
:103DF000B8AAB38DB4980D355D000000B8AAAAAA80
:103E0000B088C3C5C700000038B5044664B1C020FF
:103E10008DF80000C2208DF80100C4208DF802004A
:103E2000C6208DF8030004E08B2204216846FCF7CD
:103E3000BCF96A46042140F6982001F017FE01F013
:103E400001FA38BD10B5C8234FF48062024940F62C
:103E5000F63001F0EBF810BD845C000870B588B056
:103E6000064601A800F036FFBDF804000021C90392
:103E700041EA5045C4034448007A00F0030056F874
:103E8000200005904048007A00F0040010B1059829
:103E9000404205903C48007AC0F3C10056F820002B
:103EA00006903948007A00F0200010B10698404290
:103EB00006903548007AC0F3811056F8200007902C
:103EC0003148008900F4807010B107984042079093
:103ED0000598C117A0FB042301FB043100FB05106A
:103EE000810041EA927005900698C117A0FB042357
:103EF00001FB043100FB0510810041EA927006903D
:103F00000798C117A0FB042301FB043100FB051037
:103F1000810041EA927007900598000E8DF8080024
:103F20000598000C8DF809000598000A8DF80A0024
:103F30000598C0B28DF80B000698000E8DF80C00A5
:103F40000698000C8DF80D000698000A8DF80E00FA
:103F50000698C0B28DF80F000798000E8DF810007B
:103F60000798000C8DF811000798000A8DF81200D0
:103F70000798C0B28DF8130002AA0C214FF42570E7
:103F800001F074FD08B070BD0009002030B585B0A7
:103F9000044616A207CA02AB07C3C82C03DD4FF0C4
:103FA000FF3005B030BDC82090FBF4F0401E85B254
:103FB000280A8DF80000E8B28DF801006A46022157
:103FC00040F2162001F052FD10B14FF0FF30E8E74B
:103FD00002AA0C2140F6C12001F048FD10B14FF0BB
:103FE000FF30DEE7044884810020DAE7FEF2ABC44C
:103FF000AAF1DFDFBBAFDFDF000900201FB50446F9
:104000004848007A00F0030054F820000190454829
:10401000007A00F0040010B101984042019041483C
:10402000007AC0F3C10054F8200002903D48007AA5
:1040300000F0200010B10298404202903948007A06
:10404000C0F3811054F8200003903648008900F432
:10405000807010B10398404203903349019880FB6F
:104060000101800F40EA810001902F49029880FBF6
:104070000110820042EA917002902B49039880FB64
:104080000110820042EA917003900198000E8DF8B1
:1040900000000198000C8DF801000198000A8DF8CD
:1040A00002000198C0B28DF803006A4604214FF463
:1040B000747001F0DBFC18B14FF0FF3004B010BD9C
:1040C0000298000E8DF800000298000C8DF8010097
:1040D0000298000A8DF802000298C0B28DF8030021
:1040E0006A4604214FF4757001F0C0FC10B14FF026
:1040F000FF30E3E70398000E8DF800000398000CF2
:104100008DF801000398000A8DF802000398C0B2F0
:104110008DF803006A4604214FF4767001F0A6FC86
:10412000CCE700000009002009E3CA0210B586B000
:10413000044647A00068039046A00068029046A08D
:104140000068019045A00068009004F0030003A9F6
:10415000085C8DF8140003A8C4F3C101405C8DF81D
:10416000150003A8C4F38111405C8DF8160004F01B
:10417000030002A9085C8DF8100002A8C4F3C10175
:10418000405C8DF8110002A8C4F38111405C8DF8E9
:10419000120005AA032140F2264001F067FC18B185
:1041A0004FF0FF3006B010BD04AA032140F22A40B0
:1041B00001F05CFC10B14FF0FF30F3E7019805907F
:1041C0000098049004F0040058B19DF8140040F0E9
:1041D00001008DF814009DF8100040F001008DF8EA
:1041E000100004F0200058B19DF8150040F00100C7
:1041F0008DF815009DF8110040F001008DF81100B8
:1042000004F4807058B19DF8160040F001008DF85C
:1042100016009DF8120040F001008DF8120005AA6A
:1042200003214FF4886001F021FC10B14FF0FF3002
:10423000B8E704AA032140F2314001F017FC10B1A5
:104240004FF0FF30AEE7064804810020AAE70000E7
:104250004CCD6C000CC92C00365676002646660004
:1042600000090020F8B505460E464FF47A7095FB1C
:10427000F0F000FB06F4200E8DF80000200C8DF805
:104280000100200A8DF80200E0B28DF803006A46B2
:1042900004214FF4AE7001F0E9FBF8BD38B50446D7
:1042A000052094FBF0F084B220128DF80000E0B2FB
:1042B0008DF801006A4602214FF4AD7001F0D6FB83
:1042C00038BD38B50446052094FBF0F084B22012C6
:1042D0008DF80000E0B28DF801006A4602214FF42B
:1042E000AC7001F0C3FB38BD38B504460020009027
:1042F00004F0010020B19DF8000040F03000009073
:1043000004F0020020B19DF8000040F00C00009085
:1043100004F0040020B19DF8000040F0030000907C
:104320006A4601214FF4A47001F0A0FB38BD38B5F6
:104330000446012C01DA012402E0042C00DD0424EF
:10434000601EC0B200906A46012140F24F1001F099
:104350008DFB38BD2DE9FC4706460F4606F00700E9
:1043600010B1B7F5C86F03DD4FF0FF30BDE8FC8733
:104370003846FCF792F981465949FBF7BFFF804662
:10438000684600F081FC9DF80000022806D0042851
:1043900016D0082826D0102848D135E04FF08D419E
:1043A0004046FBF779FF8146FCF795F984B24D4909
:1043B0004046FBF771FF8146FCF78DF985B238E086
:1043C0004FF08C414046FBF767FF8146FCF783F9CD
:1043D00084B245494046FBF75FFF8146FCF77BF915
:1043E00085B226E04FF08B414046FBF755FF8146F2
:1043F000FCF771F984B23D494046FBF74DFF814619
:10440000FCF769F985B214E04FF08A414046FBF7AA
:1044100043FF8146FCF75FF984B235494046FBF71C
:104420003BFF8146FCF757F985B202E04FF0FF30C1
:104430009CE700BF20128DF80400E0B28DF8050063
:1044400028128DF80600E8B28DF8070006F001008A
:10445000A0B101AA02214FF4EA7001F007FB10B1EC
:104460004FF0FF3082E70DF1060202214FF4927007
:1044700001F0FCFA10B14FF0FF3077E706F00200D0
:10448000A0B101AA02214FF4EC7001F0EFFA10B1D3
:104490004FF0FF306AE70DF1060202214FF49470ED
:1044A00001F0E4FA10B14FF0FF305FE706F00400CE
:1044B000A0B101AA02214FF4EE7001F0D7FA10B1B9
:1044C0004FF0FF3052E70DF1060202214FF49670D3
:1044D00001F0CCFA10B14FF0FF3047E7002045E77C
:1044E00000004843000040460000C0450000404531
:1044F0000000C04438B50446052094FBF0F085B2B6
:1045000028128DF80000E8B28DF801006A460221F9
:104510004FF4EF7001F0AAFA38BD38B50446052013
:1045200094FBF0F085B228128DF80000E8B28DF807
:1045300001006A4602214FF4ED7001F097FA38BD90
:1045400000BF054A128802F04002002AF9D0C2B228
:10455000014B1B1D1A807047003801407CB5054691
:1045600028494968087801AB04220D21FDF724FB96
:1045700008B107207CBD9DF80700C0F301109DF82D
:10458000041001F0E00140EAE1008DF800009DF820
:104590000700C0F381009DF8051001F0E00140EA3A
:1045A000E1008DF801009DF8070000F003009DF880
:1045B000061001F0E00140EAE1008DF8020000245D
:1045C0001CE01DF8040018B9002045F8240013E091
:1045D0000D4845F8240006E055F824000B49FBF788
:1045E0005BFE45F824001DF80400401EC0B20DF823
:1045F00004000028F0D100BF601CC4B2032CE0DB33
:104600000020B7E7280000207B14AE3E1D5A843FEF
:104610002DE9F04F87B005460C46914601208DF8F4
:10462000100000208DF81100FE4A1268917CFD4AAE
:104630005268107804AB0222FDF764FB20B14FF002
:10464000FF3007B0BDE8F08FC820FFF739FA00202F
:104650008DF81000F34A1268D17BF24A5268107844
:1046600004AB0122FDF74EFB10B14FF0FF30E8E73D
:10467000EC4A12685179EB4A5268107804AB012277
:10468000FDF740FB10B14FF0FF30DAE7E54A126862
:10469000917CE44A5268107804AB0122FDF732FBAA
:1046A00010B14FF0FF30CCE7DE4A1268D17DDD4A11
:1046B0005268107804AB0122FDF724FB10B14FF0D3
:1046C000FF30BEE7D74A12681179D64A526810788F
:1046D00004AB0122FDF716FB10B14FF0FF30B0E73D
:1046E0000C208DF81000CF4A12681179CD4A52681B
:1046F000107804AB0122FDF705FB10B14FF0FF303D
:104700009FE70F20FFF7DCF9C648806A407A8DF8F2
:104710001000C44A12689178C24A5268107804ABFB
:104720000122FDF7EFFA10B14FF0FF3089E7BD48E5
:10473000806A007A8DF81000BA4A12685178B94A36
:104740005268107804AB0122FDF7DCFA10B14FF08B
:10475000FF3076E7B9F1000F07D0B248806A807A5F
:1047600040F0E0008DF8100004E0AE48806A807AE6
:104770008DF81000AB4A12689179AA4A52681078F5
:1047800004AB0122FDF7BEFA10B14FF0FF3058E73D
:10479000B9F1000F07D0A348806AC07A40F0E0006A
:1047A0008DF8100003E0A048C07A8DF810009D4AF3
:1047B0001268D1799B4A5268107804AB0122FDF748
:1047C000A1FA10B14FF0FF303BE7B9F1000F02D072
:1047D000C820FFF775F940208DF81000914A126843
:1047E0001179904A5268107804AB0122FDF78AFAD9
:1047F00010B14FF0FF3024E778208DF81000894A7F
:1048000012685179874A5268107804AB0122FDF78B
:1048100079FA10B14FF0FF3013E783498889FFF729
:104820004FF900208DF810007E4A126851797D4AB8
:104830005268107804AB0122FDF764FA10B14FF012
:10484000FF30FEE6774A1268917A764A526810780D
:1048500004AB0222FDF7B0F910B14FF0FF30F0E6E3
:104860009DF811009DF8101040EA012B0C209BFBD5
:10487000F0F0C6B20020A86068602860A0606060A8
:104880002060824665E0674A1268D17A654A5268BC
:10489000107804AB0C22FDF78FF910B14FF0FF3008
:1048A000CFE69DF811009DF8101040EA012000B2FB
:1048B000ADF808009DF813009DF8121040EA0120A1
:1048C00000B2ADF80A009DF815009DF8141040EAFA
:1048D000012000B2ADF80C00BDF9081020680844B2
:1048E0002060BDF90A10606808446060BDF90C10D2
:1048F000A0680844A0609DF817009DF8161040EAD3
:10490000012000B2ADF800009DF819009DF81810C4
:1049100040EA012000B2ADF802009DF81B009DF8AE
:104920001A1040EA012000B2ADF80400BDF90010F1
:10493000286808442860BDF9021068680844686067
:10494000BDF90410A8680844A8600AF1010000F04D
:10495000FF0AB24597DB3448D0F800C02868C11779
:10496000090441EA10410704624600233846FBF778
:10497000D9FB32460023CDE90201FBF7D3FB2860C7
:104980002948D0F800C06868C117090441EA1041FD
:104990000704624600233846FBF7C4FB3246002377
:1049A000CDE90201FBF7BEFB68601F48D0F800C0EC
:1049B000A868C117090441EA1041070462460023B0
:1049C0003846FBF7AFFB32460023CDE90201FBF787
:1049D000A9FBA8601448D0F804C02168C8170004D7
:1049E00040EA11480F046246002338464146FBF76F
:1049F00099FB32460023CDE90201FBF793FB2060CF
:104A00000948D0F804C06068C117090441EA1041A0
:104A10000704624600233846FBF784FB3246002336
:104A200004E00000280000205C5C0008CDE90201E1
:104A3000FBF778FB60601148D0F804C0A068C1178C
:104A4000090441EA10410704624600233846FBF797
:104A500069FB32460023CDE90201FBF763FBA0604E
:104A6000A068002804DDA068A0F58030A06003E005
:104A7000A06800F58030A0600020E2E55C5C0008E2
:104A80002DE9FC5F06460F4600253D494968087838
:104A900001AB03220D21FDF78FF810B10720BDE80F
:104AA000FC9F9DF8040000F01F008DF804009DF8A5
:104AB000050000F01F008DF805009DF8060000F0CD
:104AC0001F008DF80600002456E056F8240057F821
:104AD0002410A0EB010BBBF1000F01DB594601E0F4
:104AE000CBF100010846FBF7CFFD4FF08F4100905E
:104AF000FBF704FC814601A8005D68B32149086802
:104B0000FBF7CBFD834659461F48FBF7F7FB804672
:104B100004E01E494046FBF7BFFB804601A8005D4C
:104B2000401EC0B201A908550028F2D141464846AE
:104B3000FBF7E4FB83464FF07E51FBF7A7FB824671
:104B40002AF0004B0F4881695846FBF7E3FD12D26B
:104B50000120A04005430EE00A4801694846FBF7E2
:104B6000CFFD05D3074841694846FBF7D3FD02D284
:104B70000120A0400543641C032CA6DB28468EE7D9
:104B8000280000205C5C000800B04C4554E3853FE1
:104B900010B50446204600F00FF80346E01C00F074
:104BA0000BF843EAC00083B2A01D00F005F843EA09
:104BB000801083B2184610BD014691F90020002AEA
:104BC00001DD00201EE091F90020002A01DA042016
:104BD00018E091F90120002A01DD012012E091F98D
:104BE0000120002A01DA05200CE091F90220002AB8
:104BF00001DD022006E091F90220002A01DA0620F8
:104C000000E007207047FCF7BBF803E0FDF776FEF5
:104C1000FDF794FFFAE7000070B50446002624F083
:104C20000104184890F8240008B1002070BD154810
:104C3000807A10B94FF0FF30F8E71248057C807A8F
:104C40002040104908740846007CA04202D04FF072
:104C5000FF3600E0002614B90A48007D18B1012093
:104C600000F08EFF02E0002000F08AFF3CB100F06F
:104C7000E9FA20B1034805744FF0FF30D6E730461B
:104C8000D4E700002800002001461148407A30B1E6
:104C9000012807D0022808D003280CD108E0022000
:104CA00008700BE00420087008E00820087005E098
:104CB0001020087002E04FF0FF30704700BF04483A
:104CC000C07C18B108784006000E08700020F4E798
:104CD0002800002001461348407A30B1012808D04E
:104CE00002280AD0032810D10BE04FF4804008803E
:104CF0000EE041F69C7008800AE04FF48050088076
:104D000006E04FF40060088002E04FF0FF3070478B
:104D100000BF0448C07C10B1088840100880002003
:104D2000F5E700002800002001460248007C0870DA
:104D3000002070472800002001460F48007A30B15B
:104D4000012807D0022809D003280FD10AE0FA2051
:104D500008800EE04FF4FA7008800AE04FF47A7091
:104D6000088006E04FF4FA60088002E00020088026
:104D700000BF00BF002070472800002001460E48F9
:104D8000007A30B1012807D0022808D003280CD1BE
:104D900008E00A4808600BE00948086008E0094894
:104DA000086005E00848086002E04FF0FF307047F7
:104DB00000BF0020FBE700002800002000000343A4
:104DC00000008342333303423333834101461248A8
:104DD000C07A082817D2DFE800F01704070A0D1080
:104DE0001318BC20088013E06220088010E02A20FD
:104DF00008800DE0142008800AE00A20088007E0FF
:104E00000520088004E000BF00BF0020088000BF2C
:104E100000BF00207047000028000020014606481F
:104E200090F8240010B14FF0FF3070470248C0895D
:104E300008800020F9E70000280000201CB5802031
:104E40008DF80000654A1268917C644A52681078B7
:104E50006B460122FCF756FF10B14FF0FF301CBD2E
:104E60006420FEF72DFE00208DF800005B4A1268DA
:104E7000917C5A4A526810786B460122FCF742FF37
:104E800010B14FF0FF30EAE7544A1268917D534A5F
:104E9000526810786B460622FCF78EFE10B14FF078
:104EA000FF30DCE79DF80500C007400F9DF80310B8
:104EB00001F0010140EA41009DF8011001F00101FB
:104EC00040EA010494B1012C03D101214348C1748B
:104ED00031E0022C03D100214048C1742BE021466F
:104EE0003FA0FEF7F1F84FF0FF30B8E73B4A1268F9
:104EF000D1783A4A526810786B460122FCF75CFE82
:104F000010B14FF0FF30AAE79DF8000000F00F0449
:104F10002CB93D48FEF7D8F84FF0FF309FE7042C3E
:104F200006D13AA0FEF7D0F801212C48C17402E066
:104F300000212A48C174FF2128488172FF20274997
:104F40000872FF2125484172C1724FF6FF71C1817D
:104F5000FF21017481740121017380F82210002166
:104F600080F8231041750175163001604160816041
:104F7000163880F8241080F82510C1844FF4FA60A8
:104F800000F002FC10B14FF0FF3068E7022000F0A3
:104F9000CBFA10B14FF0FF3061E72A2000F06EFC31
:104FA00010B14FF0FF305AE7322000F0A9FC10B1E9
:104FB0004FF0FF3053E70020FFF72EFE10B14FF007
:104FC000FF304CE7002000F0F1FA10B14FF0FF3055
:104FD00045E7002000F0E2FC002040E72800002028
:104FE000556E737570706F7274656420736F66743C
:104FF000776172652070726F647563742072657674
:105000002025642E0A0000009470000848616C6638
:105010002073656E73697469766974792070617242
:105020007420666F756E642E0A0000002DE9F0434F
:1050300085B005460E4690469946294890F82500C9
:1050400020B14FF0FF3005B0BDE8F08316B94FF046
:10505000FF30F8E7002423E0281B102801DD102092
:1050600000E0281B87B232193946204600F0FEFCCA
:1050700010B14FF0FF30E6E701AA3946204600F0B4
:10508000A1F810B14FF0FF30DDE730193A4601A921
:10509000FBF79DF810B16FF00100D4E7E01984B27E
:1050A000AC42D9DB4FEA28208DF8000008F0FF0061
:1050B0008DF801000A4A1268917E094A52681078F8
:1050C0006B460222FCF71EFE10B14FF0FF30BAE72C
:1050D0000121034880F82510A0F826900020B2E7AF
:1050E0002800002038B50446282C02DD4FF0FF30A0
:1050F00038BDDCB9002000F08BFB00208DF80000EB
:1051000007208DF801002E4A1268917C2C4A5268C3
:1051100010786B460222FCF7F5FD10B14FF0FF301E
:10512000E6E70021264801750020E1E7012000F0B4
:105130006FFB20208DF80000012C06D100208DF897
:105140000100052000F09AFB17E0052C06DC012089
:105150008DF80100052000F091FB0EE0142C06DC18
:1051600002208DF801000A2000F088FB05E00320F2
:105170008DF80100142000F081FB9DF8010007214B
:1051800001EB8010C0B28DF801000D4A1268917CCD
:105190000B4A526810786B460222FCF7B3FD10B13F
:1051A0004FF0FF30A4E70821054881720021017308
:1051B000012101750020FFF72FFD002098E7000076
:1051C00028000020F8B504460D46164616B94FF0E3
:1051D000FF30F8BD1A48807A10B94FF0FF30F8E779
:1051E00020128DF80000E0B28DF801009DF801005A
:1051F0002844134949684989884202DD4FF0FF304D
:10520000E7E70F4A1268117E0D4A526810786B4624
:105210000222FCF777FD10B14FF0FF30D9E7EAB278
:10522000074B1B68597D064B5B6818783346FCF7C3
:10523000C3FC10B14FF0FF30CBE70020C9E70000FE
:105240002800002008B57048807A10B94FF0FF3070
:1052500008BD002000906C4A1268D17B6A4A5268EF
:1052600010786B460122FCF74DFD10B14FF0FF3076
:10527000EEE7654A12685179634A526810786B46C6
:105280000122FCF73FFD10B14FF0FF30E0E75E4A2E
:10529000126811795C4A526810786B460122FCF75B
:1052A00031FD10B14FF0FF30D2E7574890F824009D
:1052B000002853D00C200090534A12681179524AAA
:1052C000526810786B460122FCF71CFD10B14FF0BC
:1052D000FF30BDE73220FEF7F3FBC02000904A48C4
:1052E000807A00F0010020B19DF8000040F020001D
:1052F0000090454A12681179434A526810786B460B
:105300000122FCF7FFFC10B14FF0FF30A0E73E4850
:10531000407C10B10220009001E0002000903A4A49
:105320001268D17B384A526810786B460122FCF72C
:10533000E9FC10B14FF0FF308AE700200090324ABC
:1053400012685179304A526810786B460122FCF796
:10535000D9FC002855D04FF0FF3079E704200090A9
:10536000294A12681179284A526810786B4601223E
:10537000FCF7C8FC10B14FF0FF3069E72248807C91
:1053800020B92148807A00F0010010B94020009037
:1053900001E0602000901C4A126811791A4A526894
:1053A00010786B460122FCF7ADFC10B14FF0FF30D6
:1053B0004EE73220FEF784FB1348407C10B10120F9
:1053C000009001E0002000900F4A1268D17B0E4A45
:1053D000526810786B460122FCF794FC10B14FF034
:1053E000FF3035E7084A12685179074A5268107849
:1053F000054B10330122FCF785FC10B14FF0FF3054
:1054000026E7002024E70000280000202DE9F04FC7
:105410008DB083460F4602200C90424890F824003D
:1054200020B1002000F068F9012600E0002603A862
:10543000FFF782FC05A8FFF727FC01A8FFF7C6FCD1
:1054400002A8FFF7EBFC374890F80AA004A8FFF782
:105450006BFC002407E0002239465846FFF7D8F8D5
:1054600000B902E0641C022CF5DB00BF022C01D164
:10547000002528E0002407E0012206A909A8FFF77B
:10548000C7F800B902E0641C022CF5DB00BF022C57
:1054900001D1002517E006A93846FEF79BFA00F077
:1054A000FF0809A95846FFF7EBFA00F0FF090025AD
:1054B000B9F1000F01D145F00105B8F1000F01D19C
:1054C00045F0020500BFFF2016490872FF2115486C
:1054D0004172C1724FF6FF71C181FF218172017467
:1054E00001210173BDF80C0000F04EF99DF8140085
:1054F00000F01AF8BDF8040000F0C0F9BDF808008B
:1055000000F0FEF9504600F049FA9DF81000FFF750
:1055100083FB16B1012000F0EFF828460DB0BDE87E
:10552000F08F00002800002038B504461E48807A1D
:1055300010B94FF0FF3038BD022C06D0042C07D034
:10554000082C08D0102C0CD108E0002000900BE0B3
:105550000820009008E01020009005E0182000903E
:1055600002E04FF0FF30E6E700BF0F48407A9DF8B9
:105570000010B0EBE10F01D10020DCE70A4A12680D
:10558000D179094A526810786B460122FCF7BAFBC0
:1055900010B14FF0FF30CEE79DF80000C110024877
:1055A00041720020C7E700002800002038B50446FB
:1055B0005048807CA04201D1002038BD002C46D04C
:1055C0004C4A126811794B4A526810786B46012296
:1055D000FCF7F2FA10B14FF0FF30EEE79DF8000053
:1055E00020F020000090434A12681179414A526825
:1055F00010786B460122FCF785FB10B14FF0FF30AD
:10560000DBE70320FEF75CFA02200090394890F8AF
:10561000220020B19DF8000040F080000090354845
:1056200090F8230020B19DF8000040F03000009079
:10563000304A1268117D2F4A526810786B46012259
:10564000FCF760FB002851D04FF0FF30B5E7294A46
:1056500012681179274A526810786B460122FCF7CC
:10566000ABFA10B14FF0FF30A7E72248807A00F084
:10567000010028B19DF8000040F02000009004E0F7
:105680009DF8000020F0200000901A4A126811795D
:10569000184A526810786B460122FCF733FB10B1B0
:1056A0004FF0FF3089E70320FEF70AFA114890F81F
:1056B000220010B18020009001E0002000900D48F1
:1056C00090F8230020B19DF8000040F030000090D9
:1056D000084A1268117D074A526810786B46012209
:1056E000FCF710FB10B14FF0FF3066E701488474FF
:1056F000002062E72800002038B50446214890F8D1
:105700002400A04201D1002038BD24B31D4890F8E8
:10571000250010B94FF0FF30F6E7002000F030FA16
:105720000020FFF743FF1749C88C00F0E9F800207C
:1057300000901449496808786B4601222321FCF740
:10574000E1FA01210F4880F82410012000F018FA36
:10575000FFF778FD13E0002000F012FA0948007C02
:1057600000900849496808786B4601222321FCF71C
:10577000C9FA0021034880F82410FFF763FD0020D8
:10578000C2E700002800002038B504461F48807A90
:1057900010B94FF0FF3038BDFA2C09D0B4F5FA7FBC
:1057A00009D0B4F57A7F09D0B4F5FA6F0CD108E0CE
:1057B000002000900BE00820009008E010200090EE
:1057C00005E01820009002E04FF0FF30E3E700BF53
:1057D0000E48007A9DF80010B0EBE10F01D10020D7
:1057E000D9E70A4A12689179084A526810786B46DC
:1057F0000122FCF787FA10B14FF0FF30CBE79DF89C
:105800000000C010014908720020C4E728000020F1
:1058100038B50446184890F82300A04201D1002072
:1058200038BD14B13020009001E0002000901248F3
:10583000807C20B19DF8000040F0020000900E48EE
:1058400090F8220020B19DF8000040F08000009008
:10585000094A1268117D084A526810786B46012285
:10586000FCF750FA10B14FF0FF30D9E7024880F84A
:1058700023400020D4E700002800002038B504466B
:105880001E48807A10B94FF0FF3038BDBC2C02DBC7
:105890000120009015E0622C02DB0220009010E055
:1058A0002A2C02DB032000900BE0142C02DB0420E6
:1058B000009006E00A2C02DB0520009001E00620A3
:1058C00000900E48C07A9DF80010884201D1002057
:1058D000DBE70A4A12689178084A526810786B46EA
:1058E0000122FCF70FFA10B14FF0FF30CDE79DF821
:1058F00000100248C1720020C7E700002800002005
:1059000038B504462448807A10B94FF0FF3038BDCE
:10591000214890F8240010B14FF0FF30F7E71E48FF
:10592000007D50B134B1282C04DCE0B2FFF7DAFB83
:105930000020ECE70020FFF7D5FB042C01DA04245B
:1059400004E0B4F57A7F01DD4FF47A744FF47A7095
:1059500090FBF4F0401EC0B200900F4A12685178DC
:105960000D4A526810786B460122FCF7CBF910B152
:105970004FF0FF30CBE79DF80000401C4FF47A71E8
:1059800091FBF0F081B20448C1810146C9894810F9
:10599000FFF774FF0020BAE72800002038B504465E
:1059A00004F0700010B10120009005E014B1002057
:1059B000009001E0402000902B4A1268917C2A4A16
:1059C000526810786B460122FCF79CF920B1002147
:1059D00025488172481E38BD9DF8000020F0400126
:1059E000214801730020009004F0400020B99DF888
:1059F000000040F00400009004F0200020B99DF861
:105A0000000040F00200009004F0100020B99DF862
:105A1000000040F00100009004F0080020B99DF85B
:105A2000000040F0380000900F4A1268D17C0E4A06
:105A3000526810786B460122FCF764F920B100210E
:105A400009488172481EC6E724B1082C02D0002004
:105A5000FFF7DEFE04488472002101753220FEF754
:105A60002FF80020B7E7000028000020F8B5044612
:105A70000D46164616B94FF0FF30F8BD1A48807A29
:105A800010B94FF0FF30F8E720128DF80000E0B2B7
:105A90008DF801009DF8010028441349496849899F
:105AA000884202DD4FF0FF30E7E70F4A1268117EAF
:105AB0000D4A526810786B460222FCF723F910B1A8
:105AC0004FF0FF30D9E7EAB2074B1B68597D064B10
:105AD0005B6818783346FCF715F910B14FF0FF30CA
